{
  "_format": "hh-sol-artifact-1",
  "contractName": "EVoting",
  "sourceName": "contracts/EVoting.sol",
  "abi": [
    {
      "inputs": [],
      "stateMutability": "nonpayable",
      "type": "constructor"
    },
    {
      "anonymous": false,
      "inputs": [
        {
          "indexed": true,
          "internalType": "uint256",
          "name": "candidateId",
          "type": "uint256"
        },
        {
          "indexed": false,
          "internalType": "string",
          "name": "name",
          "type": "string"
        },
        {
          "indexed": false,
          "internalType": "string",
          "name": "party",
          "type": "string"
        },
        {
          "indexed": false,
          "internalType": "uint256",
          "name": "constituency",
          "type": "uint256"
        }
      ],
      "name": "CandidateAdded",
      "type": "event"
    },
    {
      "anonymous": false,
      "inputs": [
        {
          "indexed": true,
          "internalType": "address",
          "name": "previousOwner",
          "type": "address"
        },
        {
          "indexed": true,
          "internalType": "address",
          "name": "newOwner",
          "type": "address"
        }
      ],
      "name": "OwnershipTransferred",
      "type": "event"
    },
    {
      "anonymous": false,
      "inputs": [
        {
          "indexed": true,
          "internalType": "address",
          "name": "voter",
          "type": "address"
        },
        {
          "indexed": false,
          "internalType": "uint256",
          "name": "constituency",
          "type": "uint256"
        }
      ],
      "name": "VoteCast",
      "type": "event"
    },
    {
      "anonymous": false,
      "inputs": [
        {
          "indexed": true,
          "internalType": "address",
          "name": "voter",
          "type": "address"
        },
        {
          "indexed": false,
          "internalType": "uint256",
          "name": "constituency",
          "type": "uint256"
        }
      ],
      "name": "VoterRegistered",
      "type": "event"
    },
    {
      "anonymous": false,
      "inputs": [],
      "name": "VotingEnded",
      "type": "event"
    },
    {
      "anonymous": false,
      "inputs": [],
      "name": "VotingStarted",
      "type": "event"
    },
    {
      "inputs": [
        {
          "internalType": "string",
          "name": "_name",
          "type": "string"
        },
        {
          "internalType": "string",
          "name": "_party",
          "type": "string"
        },
        {
          "internalType": "uint256",
          "name": "_constituency",
          "type": "uint256"
        }
      ],
      "name": "addCandidate",
      "outputs": [],
      "stateMutability": "nonpayable",
      "type": "function"
    },
    {
      "inputs": [
        {
          "internalType": "uint256",
          "name": "",
          "type": "uint256"
        }
      ],
      "name": "candidates",
      "outputs": [
        {
          "internalType": "string",
          "name": "name",
          "type": "string"
        },
        {
          "internalType": "string",
          "name": "party",
          "type": "string"
        },
        {
          "internalType": "uint256",
          "name": "constituency",
          "type": "uint256"
        },
        {
          "internalType": "uint256",
          "name": "voteCount",
          "type": "uint256"
        }
      ],
      "stateMutability": "view",
      "type": "function"
    },
    {
      "inputs": [
        {
          "internalType": "uint256",
          "name": "_candidateId",
          "type": "uint256"
        }
      ],
      "name": "castVote",
      "outputs": [],
      "stateMutability": "nonpayable",
      "type": "function"
    },
    {
      "inputs": [
        {
          "internalType": "uint256",
          "name": "",
          "type": "uint256"
        }
      ],
      "name": "constituencyExists",
      "outputs": [
        {
          "internalType": "bool",
          "name": "",
          "type": "bool"
        }
      ],
      "stateMutability": "view",
      "type": "function"
    },
    {
      "inputs": [],
      "name": "endVoting",
      "outputs": [],
      "stateMutability": "nonpayable",
      "type": "function"
    },
    {
      "inputs": [],
      "name": "getCandidateCount",
      "outputs": [
        {
          "internalType": "uint256",
          "name": "",
          "type": "uint256"
        }
      ],
      "stateMutability": "view",
      "type": "function"
    },
    {
      "inputs": [
        {
          "internalType": "uint256",
          "name": "_constituency",
          "type": "uint256"
        }
      ],
      "name": "getConstituencyResults",
      "outputs": [
        {
          "internalType": "uint256[]",
          "name": "candidateIds",
          "type": "uint256[]"
        },
        {
          "internalType": "uint256[]",
          "name": "voteCounts",
          "type": "uint256[]"
        }
      ],
      "stateMutability": "view",
      "type": "function"
    },
    {
      "inputs": [
        {
          "internalType": "address",
          "name": "_voter",
          "type": "address"
        }
      ],
      "name": "getVoterInfo",
      "outputs": [
        {
          "internalType": "bool",
          "name": "isRegistered",
          "type": "bool"
        },
        {
          "internalType": "bool",
          "name": "hasVoted",
          "type": "bool"
        },
        {
          "internalType": "uint256",
          "name": "constituency",
          "type": "uint256"
        }
      ],
      "stateMutability": "view",
      "type": "function"
    },
    {
      "inputs": [],
      "name": "owner",
      "outputs": [
        {
          "internalType": "address",
          "name": "",
          "type": "address"
        }
      ],
      "stateMutability": "view",
      "type": "function"
    },
    {
      "inputs": [
        {
          "internalType": "uint256",
          "name": "_constituency",
          "type": "uint256"
        },
        {
          "internalType": "bytes32",
          "name": "_aadharHash",
          "type": "bytes32"
        }
      ],
      "name": "registerVoter",
      "outputs": [],
      "stateMutability": "nonpayable",
      "type": "function"
    },
    {
      "inputs": [],
      "name": "renounceOwnership",
      "outputs": [],
      "stateMutability": "nonpayable",
      "type": "function"
    },
    {
      "inputs": [],
      "name": "startVoting",
      "outputs": [],
      "stateMutability": "nonpayable",
      "type": "function"
    },
    {
      "inputs": [
        {
          "internalType": "address",
          "name": "newOwner",
          "type": "address"
        }
      ],
      "name": "transferOwnership",
      "outputs": [],
      "stateMutability": "nonpayable",
      "type": "function"
    },
    {
      "inputs": [
        {
          "internalType": "address",
          "name": "",
          "type": "address"
        }
      ],
      "name": "voters",
      "outputs": [
        {
          "internalType": "bool",
          "name": "isRegistered",
          "type": "bool"
        },
        {
          "internalType": "bool",
          "name": "hasVoted",
          "type": "bool"
        },
        {
          "internalType": "uint256",
          "name": "constituency",
          "type": "uint256"
        },
        {
          "internalType": "bytes32",
          "name": "aadharHash",
          "type": "bytes32"
        }
      ],
      "stateMutability": "view",
      "type": "function"
    },
    {
      "inputs": [],
      "name": "votingEnded",
      "outputs": [
        {
          "internalType": "bool",
          "name": "",
          "type": "bool"
        }
      ],
      "stateMutability": "view",
      "type": "function"
    },
    {
      "inputs": [],
      "name": "votingStarted",
      "outputs": [
        {
          "internalType": "bool",
          "name": "",
          "type": "bool"
        }
      ],
      "stateMutability": "view",
      "type": "function"
    }
  ],
  "bytecode": "0x608060405234801561001057600080fd5b5061002d61002261006f60201b60201c565b61007760201b60201c565b600180819055506000600560006101000a81548160ff0219169083151502179055506000600560016101000a81548160ff02191690831515021790555061013b565b600033905090565b60008060009054906101000a900473ffffffffffffffffffffffffffffffffffffffff169050816000806101000a81548173ffffffffffffffffffffffffffffffffffffffff021916908373ffffffffffffffffffffffffffffffffffffffff1602179055508173ffffffffffffffffffffffffffffffffffffffff168173ffffffffffffffffffffffffffffffffffffffff167f8be0079c531659141344cd1fd0a4f28419497f9722a3daafe3b4186f6b6457e060405160405180910390a35050565b612237806200014b6000396000f3fe608060405234801561001057600080fd5b50600436106101005760003560e01c806383d948b711610097578063a3ec138d11610066578063a3ec138d1461028f578063c3403ddf146102c2578063d2bd1738146102cc578063f2fde38b146102e857610100565b806383d948b7146102035780638da5cb5b146102215780639d5a05291461023f5780639ed1f2551461025d57610100565b80633ca09fdf116100d35780633ca09fdf146101905780633eb76b9c146101ac5780635c28b12b146101c8578063715018a6146101f957610100565b8063095bb61c146101055780631ec6b60a1461013557806330a563471461013f5780633477ee2e1461015d575b600080fd5b61011f600480360381019061011a9190611339565b610304565b60405161012c9190611381565b60405180910390f35b61013d610324565b005b6101476103c5565b60405161015491906113ab565b60405180910390f35b61017760048036038101906101729190611339565b6103d2565b6040516101879493929190611456565b60405180910390f35b6101aa60048036038101906101a591906115de565b610522565b005b6101c660048036038101906101c19190611339565b610687565b005b6101e260048036038101906101dd9190611339565b610a37565b6040516101f0929190611727565b60405180910390f35b610201610c5c565b005b61020b610c70565b6040516102189190611381565b60405180910390f35b610229610c83565b604051610236919061179f565b60405180910390f35b610247610cac565b6040516102549190611381565b60405180910390f35b610277600480360381019061027291906117e6565b610cbf565b60405161028693929190611813565b60405180910390f35b6102a960048036038101906102a491906117e6565b610d78565b6040516102b99493929190611863565b60405180910390f35b6102ca610dc2565b005b6102e660048036038101906102e191906118d4565b610e7b565b005b61030260048036038101906102fd91906117e6565b6110ca565b005b60046020528060005260406000206000915054906101000a900460ff1681565b61032c61114d565b600560009054906101000a900460ff161561037c576040517f08c379a000000000000000000000000000000000000000000000000000000000815260040161037390611960565b60405180910390fd5b6001600560006101000a81548160ff0219169083151502179055507f877e2548498f42b7975a186b94ef1d32c86d420b7b806dd2be2bea293b89590460405160405180910390a1565b6000600380549050905090565b600381815481106103e257600080fd5b9060005260206000209060040201600091509050806000018054610405906119af565b80601f0160208091040260200160405190810160405280929190818152602001828054610431906119af565b801561047e5780601f106104535761010080835404028352916020019161047e565b820191906000526020600020905b81548152906001019060200180831161046157829003601f168201915b505050505090806001018054610493906119af565b80601f01602080910402602001604051908101604052809291908181526020018280546104bf906119af565b801561050c5780601f106104e15761010080835404028352916020019161050c565b820191906000526020600020905b8154815290600101906020018083116104ef57829003601f168201915b5050505050908060020154908060030154905084565b61052a61114d565b600560009054906101000a900460ff161561057a576040517f08c379a000000000000000000000000000000000000000000000000000000000815260040161057190611960565b60405180910390fd5b600360405180608001604052808581526020018481526020018381526020016000815250908060018154018082558091505060019003906000526020600020906004020160009091909190915060008201518160000190816105dc9190611b8c565b5060208201518160010190816105f29190611b8c565b506040820151816002015560608201518160030155505060016004600083815260200190815260200160002060006101000a81548160ff02191690831515021790555060016003805490506106479190611c8d565b7fdd6daafbec7bc65fb954191f5538d48cc40cf3f5560fa099c1ad4dc97270cfd984848460405161067a93929190611cc1565b60405180910390a2505050565b600560009054906101000a900460ff1680156106b05750600560019054906101000a900460ff16155b6106ef576040517f08c379a00000000000000000000000000000000000000000000000000000000081526004016106e690611d52565b60405180910390fd5b6106f76111cb565b600260003373ffffffffffffffffffffffffffffffffffffffff1673ffffffffffffffffffffffffffffffffffffffff16815260200190815260200160002060000160009054906101000a900460ff16610786576040517f08c379a000000000000000000000000000000000000000000000000000000000815260040161077d90611dbe565b60405180910390fd5b600260003373ffffffffffffffffffffffffffffffffffffffff1673ffffffffffffffffffffffffffffffffffffffff16815260200190815260200160002060000160019054906101000a900460ff1615610816576040517f08c379a000000000000000000000000000000000000000000000000000000000815260040161080d90611e2a565b60405180910390fd5b600380549050811061085d576040517f08c379a000000000000000000000000000000000000000000000000000000000815260040161085490611e96565b60405180910390fd5b600260003373ffffffffffffffffffffffffffffffffffffffff1673ffffffffffffffffffffffffffffffffffffffff16815260200190815260200160002060010154600382815481106108b4576108b3611eb6565b5b90600052602060002090600402016002015414610906576040517f08c379a00000000000000000000000000000000000000000000000000000000081526004016108fd90611f57565b60405180910390fd5b6001600260003373ffffffffffffffffffffffffffffffffffffffff1673ffffffffffffffffffffffffffffffffffffffff16815260200190815260200160002060000160016101000a81548160ff0219169083151502179055506003818154811061097557610974611eb6565b5b9060005260206000209060040201600301600081548092919061099790611f77565b91905055503373ffffffffffffffffffffffffffffffffffffffff167fa36cc2bebb74db33e9f88110a07ef56e1b31b24b4c4f51b54b1664266e29f45b600260003373ffffffffffffffffffffffffffffffffffffffff1673ffffffffffffffffffffffffffffffffffffffff16815260200190815260200160002060010154604051610a2491906113ab565b60405180910390a2610a3461121a565b50565b6060806004600084815260200190815260200160002060009054906101000a900460ff16610a9a576040517f08c379a0000000000000000000000000000000000000000000000000000000008152600401610a919061200b565b60405180910390fd5b6000805b600380549050811015610af9578460038281548110610ac057610abf611eb6565b5b90600052602060002090600402016002015403610ae6578180610ae290611f77565b9250505b8080610af190611f77565b915050610a9e565b508067ffffffffffffffff811115610b1457610b136114b3565b5b604051908082528060200260200182016040528015610b425781602001602082028036833780820191505090505b5092508067ffffffffffffffff811115610b5f57610b5e6114b3565b5b604051908082528060200260200182016040528015610b8d5781602001602082028036833780820191505090505b5091506000805b600380549050811015610c54578560038281548110610bb657610bb5611eb6565b5b90600052602060002090600402016002015403610c415780858381518110610be157610be0611eb6565b5b60200260200101818152505060038181548110610c0157610c00611eb6565b5b906000526020600020906004020160030154848381518110610c2657610c25611eb6565b5b6020026020010181815250508180610c3d90611f77565b9250505b8080610c4c90611f77565b915050610b94565b505050915091565b610c6461114d565b610c6e6000611223565b565b600560009054906101000a900460ff1681565b60008060009054906101000a900473ffffffffffffffffffffffffffffffffffffffff16905090565b600560019054906101000a900460ff1681565b600080600080600260008673ffffffffffffffffffffffffffffffffffffffff1673ffffffffffffffffffffffffffffffffffffffff1681526020019081526020016000206040518060800160405290816000820160009054906101000a900460ff161515151581526020016000820160019054906101000a900460ff16151515158152602001600182015481526020016002820154815250509050806000015181602001518260400151935093509350509193909250565b60026020528060005260406000206000915090508060000160009054906101000a900460ff16908060000160019054906101000a900460ff16908060010154908060020154905084565b610dca61114d565b600560009054906101000a900460ff168015610df35750600560019054906101000a900460ff16155b610e32576040517f08c379a0000000000000000000000000000000000000000000000000000000008152600401610e2990611d52565b60405180910390fd5b6001600560016101000a81548160ff0219169083151502179055507f7a19ed057db79e3c2fa0b97a54b43bef4fce74b31bb6c01af514b9a18a7f70ab60405160405180910390a1565b600560009054906101000a900460ff1615610ecb576040517f08c379a0000000000000000000000000000000000000000000000000000000008152600401610ec290611960565b60405180910390fd5b600260003373ffffffffffffffffffffffffffffffffffffffff1673ffffffffffffffffffffffffffffffffffffffff16815260200190815260200160002060000160009054906101000a900460ff1615610f5b576040517f08c379a0000000000000000000000000000000000000000000000000000000008152600401610f5290612077565b60405180910390fd5b6004600083815260200190815260200160002060009054906101000a900460ff16610fbb576040517f08c379a0000000000000000000000000000000000000000000000000000000008152600401610fb29061200b565b60405180910390fd5b604051806080016040528060011515815260200160001515815260200183815260200182815250600260003373ffffffffffffffffffffffffffffffffffffffff1673ffffffffffffffffffffffffffffffffffffffff16815260200190815260200160002060008201518160000160006101000a81548160ff02191690831515021790555060208201518160000160016101000a81548160ff02191690831515021790555060408201518160010155606082015181600201559050503373ffffffffffffffffffffffffffffffffffffffff167ff16ce2c2236e2c6e3df646f80d657bceef4cd7f3a240c47e82adfa17a5f47241836040516110be91906113ab565b60405180910390a25050565b6110d261114d565b600073ffffffffffffffffffffffffffffffffffffffff168173ffffffffffffffffffffffffffffffffffffffff1603611141576040517f08c379a000000000000000000000000000000000000000000000000000000000815260040161113890612109565b60405180910390fd5b61114a81611223565b50565b6111556112e7565b73ffffffffffffffffffffffffffffffffffffffff16611173610c83565b73ffffffffffffffffffffffffffffffffffffffff16146111c9576040517f08c379a00000000000000000000000000000000000000000000000000000000081526004016111c090612175565b60405180910390fd5b565b600260015403611210576040517f08c379a0000000000000000000000000000000000000000000000000000000008152600401611207906121e1565b60405180910390fd5b6002600181905550565b60018081905550565b60008060009054906101000a900473ffffffffffffffffffffffffffffffffffffffff169050816000806101000a81548173ffffffffffffffffffffffffffffffffffffffff021916908373ffffffffffffffffffffffffffffffffffffffff1602179055508173ffffffffffffffffffffffffffffffffffffffff168173ffffffffffffffffffffffffffffffffffffffff167f8be0079c531659141344cd1fd0a4f28419497f9722a3daafe3b4186f6b6457e060405160405180910390a35050565b600033905090565b6000604051905090565b600080fd5b600080fd5b6000819050919050565b61131681611303565b811461132157600080fd5b50565b6000813590506113338161130d565b92915050565b60006020828403121561134f5761134e6112f9565b5b600061135d84828501611324565b91505092915050565b60008115159050919050565b61137b81611366565b82525050565b60006020820190506113966000830184611372565b92915050565b6113a581611303565b82525050565b60006020820190506113c0600083018461139c565b92915050565b600081519050919050565b600082825260208201905092915050565b60005b838110156114005780820151818401526020810190506113e5565b60008484015250505050565b6000601f19601f8301169050919050565b6000611428826113c6565b61143281856113d1565b93506114428185602086016113e2565b61144b8161140c565b840191505092915050565b60006080820190508181036000830152611470818761141d565b90508181036020830152611484818661141d565b9050611493604083018561139c565b6114a0606083018461139c565b95945050505050565b600080fd5b600080fd5b7f4e487b7100000000000000000000000000000000000000000000000000000000600052604160045260246000fd5b6114eb8261140c565b810181811067ffffffffffffffff8211171561150a576115096114b3565b5b80604052505050565b600061151d6112ef565b905061152982826114e2565b919050565b600067ffffffffffffffff821115611549576115486114b3565b5b6115528261140c565b9050602081019050919050565b82818337600083830152505050565b600061158161157c8461152e565b611513565b90508281526020810184848401111561159d5761159c6114ae565b5b6115a884828561155f565b509392505050565b600082601f8301126115c5576115c46114a9565b5b81356115d584826020860161156e565b91505092915050565b6000806000606084860312156115f7576115f66112f9565b5b600084013567ffffffffffffffff811115611615576116146112fe565b5b611621868287016115b0565b935050602084013567ffffffffffffffff811115611642576116416112fe565b5b61164e868287016115b0565b925050604061165f86828701611324565b9150509250925092565b600081519050919050565b600082825260208201905092915050565b6000819050602082019050919050565b61169e81611303565b82525050565b60006116b08383611695565b60208301905092915050565b6000602082019050919050565b60006116d482611669565b6116de8185611674565b93506116e983611685565b8060005b8381101561171a57815161170188826116a4565b975061170c836116bc565b9250506001810190506116ed565b5085935050505092915050565b6000604082019050818103600083015261174181856116c9565b9050818103602083015261175581846116c9565b90509392505050565b600073ffffffffffffffffffffffffffffffffffffffff82169050919050565b60006117898261175e565b9050919050565b6117998161177e565b82525050565b60006020820190506117b46000830184611790565b92915050565b6117c38161177e565b81146117ce57600080fd5b50565b6000813590506117e0816117ba565b92915050565b6000602082840312156117fc576117fb6112f9565b5b600061180a848285016117d1565b91505092915050565b60006060820190506118286000830186611372565b6118356020830185611372565b611842604083018461139c565b949350505050565b6000819050919050565b61185d8161184a565b82525050565b60006080820190506118786000830187611372565b6118856020830186611372565b611892604083018561139c565b61189f6060830184611854565b95945050505050565b6118b18161184a565b81146118bc57600080fd5b50565b6000813590506118ce816118a8565b92915050565b600080604083850312156118eb576118ea6112f9565b5b60006118f985828601611324565b925050602061190a858286016118bf565b9150509250929050565b7f566f74696e672068617320616c72656164792073746172746564000000000000600082015250565b600061194a601a836113d1565b915061195582611914565b602082019050919050565b600060208201905081810360008301526119798161193d565b9050919050565b7f4e487b7100000000000000000000000000000000000000000000000000000000600052602260045260246000fd5b600060028204905060018216806119c757607f821691505b6020821081036119da576119d9611980565b5b50919050565b60008190508160005260206000209050919050565b60006020601f8301049050919050565b600082821b905092915050565b600060088302611a427fffffffffffffffffffffffffffffffffffffffffffffffffffffffffffffffff82611a05565b611a4c8683611a05565b95508019841693508086168417925050509392505050565b6000819050919050565b6000611a89611a84611a7f84611303565b611a64565b611303565b9050919050565b6000819050919050565b611aa383611a6e565b611ab7611aaf82611a90565b848454611a12565b825550505050565b600090565b611acc611abf565b611ad7818484611a9a565b505050565b5b81811015611afb57611af0600082611ac4565b600181019050611add565b5050565b601f821115611b4057611b11816119e0565b611b1a846119f5565b81016020851015611b29578190505b611b3d611b35856119f5565b830182611adc565b50505b505050565b600082821c905092915050565b6000611b6360001984600802611b45565b1980831691505092915050565b6000611b7c8383611b52565b9150826002028217905092915050565b611b95826113c6565b67ffffffffffffffff811115611bae57611bad6114b3565b5b611bb882546119af565b611bc3828285611aff565b600060209050601f831160018114611bf65760008415611be4578287015190505b611bee8582611b70565b865550611c56565b601f198416611c04866119e0565b60005b82811015611c2c57848901518255600182019150602085019450602081019050611c07565b86831015611c495784890151611c45601f891682611b52565b8355505b6001600288020188555050505b505050505050565b7f4e487b7100000000000000000000000000000000000000000000000000000000600052601160045260246000fd5b6000611c9882611303565b9150611ca383611303565b9250828203905081811115611cbb57611cba611c5e565b5b92915050565b60006060820190508181036000830152611cdb818661141d565b90508181036020830152611cef818561141d565b9050611cfe604083018461139c565b949350505050565b7f566f74696e67206973206e6f7420616374697665000000000000000000000000600082015250565b6000611d3c6014836113d1565b9150611d4782611d06565b602082019050919050565b60006020820190508181036000830152611d6b81611d2f565b9050919050565b7f566f746572206e6f742072656769737465726564000000000000000000000000600082015250565b6000611da86014836113d1565b9150611db382611d72565b602082019050919050565b60006020820190508181036000830152611dd781611d9b565b9050919050565b7f416c726561647920766f74656400000000000000000000000000000000000000600082015250565b6000611e14600d836113d1565b9150611e1f82611dde565b602082019050919050565b60006020820190508181036000830152611e4381611e07565b9050919050565b7f496e76616c69642063616e646964617465000000000000000000000000000000600082015250565b6000611e806011836113d1565b9150611e8b82611e4a565b602082019050919050565b60006020820190508181036000830152611eaf81611e73565b9050919050565b7f4e487b7100000000000000000000000000000000000000000000000000000000600052603260045260246000fd5b7f43616e646964617465206e6f7420696e20766f746572277320636f6e7374697460008201527f75656e6379000000000000000000000000000000000000000000000000000000602082015250565b6000611f416025836113d1565b9150611f4c82611ee5565b604082019050919050565b60006020820190508181036000830152611f7081611f34565b9050919050565b6000611f8282611303565b91507fffffffffffffffffffffffffffffffffffffffffffffffffffffffffffffffff8203611fb457611fb3611c5e565b5b600182019050919050565b7f496e76616c696420636f6e7374697475656e6379000000000000000000000000600082015250565b6000611ff56014836113d1565b915061200082611fbf565b602082019050919050565b6000602082019050818103600083015261202481611fe8565b9050919050565b7f566f74657220616c726561647920726567697374657265640000000000000000600082015250565b60006120616018836113d1565b915061206c8261202b565b602082019050919050565b6000602082019050818103600083015261209081612054565b9050919050565b7f4f776e61626c653a206e6577206f776e657220697320746865207a65726f206160008201527f6464726573730000000000000000000000000000000000000000000000000000602082015250565b60006120f36026836113d1565b91506120fe82612097565b604082019050919050565b60006020820190508181036000830152612122816120e6565b9050919050565b7f4f776e61626c653a2063616c6c6572206973206e6f7420746865206f776e6572600082015250565b600061215f6020836113d1565b915061216a82612129565b602082019050919050565b6000602082019050818103600083015261218e81612152565b9050919050565b7f5265656e7472616e637947756172643a207265656e7472616e742063616c6c00600082015250565b60006121cb601f836113d1565b91506121d682612195565b602082019050919050565b600060208201905081810360008301526121fa816121be565b905091905056fea26469706673582212203055c49ec395c226dd362368a455e2ecccb83e134f2d252b37c01ef8a09500ca64736f6c63430008130033",
  "linkReferences": {},
  "deployedLinkReferences": {}
}